{
  "contractName": "Voting",
  "abi": [
    {
      "anonymous": false,
      "inputs": [
        {
          "indexed": true,
          "internalType": "address",
          "name": "previousOwner",
          "type": "address"
        },
        {
          "indexed": true,
          "internalType": "address",
          "name": "newOwner",
          "type": "address"
        }
      ],
      "name": "OwnershipTransferred",
      "type": "event"
    },
    {
      "anonymous": false,
      "inputs": [
        {
          "indexed": false,
          "internalType": "uint256",
          "name": "proposalId",
          "type": "uint256"
        }
      ],
      "name": "ProposalRegistered",
      "type": "event"
    },
    {
      "anonymous": false,
      "inputs": [
        {
          "indexed": false,
          "internalType": "address",
          "name": "voter",
          "type": "address"
        },
        {
          "indexed": false,
          "internalType": "uint256",
          "name": "proposalId",
          "type": "uint256"
        }
      ],
      "name": "Voted",
      "type": "event"
    },
    {
      "anonymous": false,
      "inputs": [
        {
          "indexed": false,
          "internalType": "address",
          "name": "voterAddress",
          "type": "address"
        }
      ],
      "name": "VoterRegistered",
      "type": "event"
    },
    {
      "anonymous": false,
      "inputs": [
        {
          "indexed": false,
          "internalType": "enum Voting.WorkflowStatus",
          "name": "previousStatus",
          "type": "uint8"
        },
        {
          "indexed": false,
          "internalType": "enum Voting.WorkflowStatus",
          "name": "newStatus",
          "type": "uint8"
        }
      ],
      "name": "WorkflowStatusChange",
      "type": "event"
    },
    {
      "inputs": [],
      "name": "owner",
      "outputs": [
        {
          "internalType": "address",
          "name": "",
          "type": "address"
        }
      ],
      "stateMutability": "view",
      "type": "function",
      "constant": true
    },
    {
      "inputs": [
        {
          "internalType": "uint256",
          "name": "",
          "type": "uint256"
        }
      ],
      "name": "proposalsArray",
      "outputs": [
        {
          "internalType": "string",
          "name": "description",
          "type": "string"
        },
        {
          "internalType": "uint256",
          "name": "voteCount",
          "type": "uint256"
        }
      ],
      "stateMutability": "view",
      "type": "function",
      "constant": true
    },
    {
      "inputs": [],
      "name": "renounceOwnership",
      "outputs": [],
      "stateMutability": "nonpayable",
      "type": "function"
    },
    {
      "inputs": [
        {
          "internalType": "address",
          "name": "newOwner",
          "type": "address"
        }
      ],
      "name": "transferOwnership",
      "outputs": [],
      "stateMutability": "nonpayable",
      "type": "function"
    },
    {
      "inputs": [],
      "name": "winningProposalID",
      "outputs": [
        {
          "internalType": "uint256",
          "name": "",
          "type": "uint256"
        }
      ],
      "stateMutability": "view",
      "type": "function",
      "constant": true
    },
    {
      "inputs": [],
      "name": "workflowStatus",
      "outputs": [
        {
          "internalType": "enum Voting.WorkflowStatus",
          "name": "",
          "type": "uint8"
        }
      ],
      "stateMutability": "view",
      "type": "function",
      "constant": true
    },
    {
      "inputs": [
        {
          "internalType": "address",
          "name": "_addr",
          "type": "address"
        }
      ],
      "name": "getVoter",
      "outputs": [
        {
          "components": [
            {
              "internalType": "bool",
              "name": "isRegistered",
              "type": "bool"
            },
            {
              "internalType": "bool",
              "name": "hasVoted",
              "type": "bool"
            },
            {
              "internalType": "uint256",
              "name": "votedProposalId",
              "type": "uint256"
            }
          ],
          "internalType": "struct Voting.Voter",
          "name": "",
          "type": "tuple"
        }
      ],
      "stateMutability": "view",
      "type": "function",
      "constant": true
    },
    {
      "inputs": [
        {
          "internalType": "uint256",
          "name": "_id",
          "type": "uint256"
        }
      ],
      "name": "getOneProposal",
      "outputs": [
        {
          "components": [
            {
              "internalType": "string",
              "name": "description",
              "type": "string"
            },
            {
              "internalType": "uint256",
              "name": "voteCount",
              "type": "uint256"
            }
          ],
          "internalType": "struct Voting.Proposal",
          "name": "",
          "type": "tuple"
        }
      ],
      "stateMutability": "view",
      "type": "function",
      "constant": true
    },
    {
      "inputs": [
        {
          "internalType": "address",
          "name": "_addr",
          "type": "address"
        }
      ],
      "name": "addVoter",
      "outputs": [],
      "stateMutability": "nonpayable",
      "type": "function"
    },
    {
      "inputs": [
        {
          "internalType": "string",
          "name": "_desc",
          "type": "string"
        }
      ],
      "name": "addProposal",
      "outputs": [],
      "stateMutability": "nonpayable",
      "type": "function"
    },
    {
      "inputs": [
        {
          "internalType": "uint256",
          "name": "_id",
          "type": "uint256"
        }
      ],
      "name": "setVote",
      "outputs": [],
      "stateMutability": "nonpayable",
      "type": "function"
    },
    {
      "inputs": [],
      "name": "startProposalsRegistering",
      "outputs": [],
      "stateMutability": "nonpayable",
      "type": "function"
    },
    {
      "inputs": [],
      "name": "endProposalsRegistering",
      "outputs": [],
      "stateMutability": "nonpayable",
      "type": "function"
    },
    {
      "inputs": [],
      "name": "startVotingSession",
      "outputs": [],
      "stateMutability": "nonpayable",
      "type": "function"
    },
    {
      "inputs": [],
      "name": "endVotingSession",
      "outputs": [],
      "stateMutability": "nonpayable",
      "type": "function"
    },
    {
      "inputs": [],
      "name": "tallyVotes",
      "outputs": [],
      "stateMutability": "nonpayable",
      "type": "function"
    }
  ],
  "bytecode": "0x60806040523480156200001157600080fd5b5062000032620000266200003860201b60201c565b6200004060201b60201c565b62000104565b600033905090565b60008060009054906101000a900473ffffffffffffffffffffffffffffffffffffffff169050816000806101000a81548173ffffffffffffffffffffffffffffffffffffffff021916908373ffffffffffffffffffffffffffffffffffffffff1602179055508173ffffffffffffffffffffffffffffffffffffffff168173ffffffffffffffffffffffffffffffffffffffff167f8be0079c531659141344cd1fd0a4f28419497f9722a3daafe3b4186f6b6457e060405160405180910390a35050565b61261e80620001146000396000f3fe608060405234801561001057600080fd5b50600436106101005760003560e01c8063bdc0143111610097578063ee74c67811610066578063ee74c67814610229578063f2fde38b14610233578063f4ab9adf1461024f578063f86c67791461026b57610100565b8063bdc01431146101c7578063c7038a4e146101e5578063c88af42f146101ef578063d4f50f98146101f957610100565b80638da5cb5b116100d35780638da5cb5b14610151578063a1edffa21461016f578063a2788cce1461018d578063a7bfab16146101bd57610100565b8063230796ae146101055780632fdae3c514610121578063378a21781461013d578063715018a614610147575b600080fd5b61011f600480360381019061011a91906115b1565b61029c565b005b61013b60048036038101906101369190611643565b6105ff565b005b610145610882565b005b61014f6109ef565b005b610159610a03565b60405161016691906116d1565b60405180910390f35b610177610a2c565b6040516101849190611763565b60405180910390f35b6101a760048036038101906101a291906115b1565b610a3f565b6040516101b4919061185a565b60405180910390f35b6101c5610ba6565b005b6101cf610c8c565b6040516101dc919061188b565b60405180910390f35b6101ed610c92565b005b6101f7610e0d565b005b610213600480360381019061020e91906118d2565b610ef2565b604051610220919061195c565b60405180910390f35b61023161101a565b005b61024d600480360381019061024891906118d2565b611100565b005b610269600480360381019061026491906118d2565b611183565b005b610285600480360381019061028091906115b1565b61132c565b6040516102939291906119c1565b60405180910390f35b600460003373ffffffffffffffffffffffffffffffffffffffff1673ffffffffffffffffffffffffffffffffffffffff16815260200190815260200160002060000160009054906101000a900460ff1661032b576040517f08c379a000000000000000000000000000000000000000000000000000000000815260040161032290611a3d565b60405180910390fd5b6003600581111561033f5761033e6116ec565b5b600260009054906101000a900460ff166005811115610361576103606116ec565b5b146103a1576040517f08c379a000000000000000000000000000000000000000000000000000000000815260040161039890611acf565b60405180910390fd5b60011515600460003373ffffffffffffffffffffffffffffffffffffffff1673ffffffffffffffffffffffffffffffffffffffff16815260200190815260200160002060000160019054906101000a900460ff16151503610437576040517f08c379a000000000000000000000000000000000000000000000000000000000815260040161042e90611b3b565b60405180910390fd5b600380549050811061047e576040517f08c379a000000000000000000000000000000000000000000000000000000000815260040161047590611ba7565b60405180910390fd5b6000600154905060006003828154811061049b5761049a611bc7565b5b906000526020600020906002020160010154905082600460003373ffffffffffffffffffffffffffffffffffffffff1673ffffffffffffffffffffffffffffffffffffffff168152602001908152602001600020600101819055506001600460003373ffffffffffffffffffffffffffffffffffffffff1673ffffffffffffffffffffffffffffffffffffffff16815260200190815260200160002060000160016101000a81548160ff0219169083151502179055506003838154811061056557610564611bc7565b5b9060005260206000209060020201600101600081548092919061058790611c25565b919050555080600384815481106105a1576105a0611bc7565b5b90600052602060002090600202016001015411156105c157826001819055505b7f4d99b957a2bc29a30ebd96a7be8e68fe50a3c701db28a91436490b7d53870ca433846040516105f2929190611c6d565b60405180910390a1505050565b600460003373ffffffffffffffffffffffffffffffffffffffff1673ffffffffffffffffffffffffffffffffffffffff16815260200190815260200160002060000160009054906101000a900460ff1661068e576040517f08c379a000000000000000000000000000000000000000000000000000000000815260040161068590611a3d565b60405180910390fd5b600160058111156106a2576106a16116ec565b5b600260009054906101000a900460ff1660058111156106c4576106c36116ec565b5b14610704576040517f08c379a00000000000000000000000000000000000000000000000000000000081526004016106fb90611ce2565b60405180910390fd5b60405160200161071390611d28565b60405160208183030381529060405280519060200120828260405160200161073c929190611d84565b6040516020818303038152906040528051906020012003610792576040517f08c379a000000000000000000000000000000000000000000000000000000000815260040161078990611e1a565b60405180910390fd5b61079a611532565b82828080601f016020809104026020016040519081016040528093929190818152602001838380828437600081840152601f19601f820116905080830192505050505050508160000181905250600381908060018154018082558091505060019003906000526020600020906002020160009091909190915060008201518160000190816108289190612075565b506020820151816001015550507f92e393e9b54e2f801d3ea4beb0c5e71a21cc34a5d34b77d0fb8a3aa1650dc18f60016003805490506108689190612147565b604051610875919061188b565b60405180910390a1505050565b61088a6113e8565b6004600581111561089e5761089d6116ec565b5b600260009054906101000a900460ff1660058111156108c0576108bf6116ec565b5b14610900576040517f08c379a00000000000000000000000000000000000000000000000000000000081526004016108f7906121ed565b60405180910390fd5b600080600090505b60038054905081101561097e576003828154811061092957610928611bc7565b5b9060005260206000209060020201600101546003828154811061094f5761094e611bc7565b5b906000526020600020906002020160010154111561096b578091505b808061097690611c25565b915050610908565b50806001819055506005600260006101000a81548160ff021916908360058111156109ac576109ab6116ec565b5b02179055507f0a97a4ee45751e2abf3e4fc8946939630b11b371ea8ae39ccdc3056e98f5cc3f600460056040516109e492919061220d565b60405180910390a150565b6109f76113e8565b610a016000611466565b565b60008060009054906101000a900473ffffffffffffffffffffffffffffffffffffffff16905090565b600260009054906101000a900460ff1681565b610a47611532565b600460003373ffffffffffffffffffffffffffffffffffffffff1673ffffffffffffffffffffffffffffffffffffffff16815260200190815260200160002060000160009054906101000a900460ff16610ad6576040517f08c379a0000000000000000000000000000000000000000000000000000000008152600401610acd90611a3d565b60405180910390fd5b60038281548110610aea57610ae9611bc7565b5b9060005260206000209060020201604051806040016040529081600082018054610b1390611e98565b80601f0160208091040260200160405190810160405280929190818152602001828054610b3f90611e98565b8015610b8c5780601f10610b6157610100808354040283529160200191610b8c565b820191906000526020600020905b815481529060010190602001808311610b6f57829003601f168201915b505050505081526020016001820154815250509050919050565b610bae6113e8565b60036005811115610bc257610bc16116ec565b5b600260009054906101000a900460ff166005811115610be457610be36116ec565b5b14610c24576040517f08c379a0000000000000000000000000000000000000000000000000000000008152600401610c1b90611acf565b60405180910390fd5b6004600260006101000a81548160ff02191690836005811115610c4a57610c496116ec565b5b02179055507f0a97a4ee45751e2abf3e4fc8946939630b11b371ea8ae39ccdc3056e98f5cc3f60036004604051610c8292919061220d565b60405180910390a1565b60015481565b610c9a6113e8565b60006005811115610cae57610cad6116ec565b5b600260009054906101000a900460ff166005811115610cd057610ccf6116ec565b5b14610d10576040517f08c379a0000000000000000000000000000000000000000000000000000000008152600401610d07906122a8565b60405180910390fd5b6001600260006101000a81548160ff02191690836005811115610d3657610d356116ec565b5b0217905550610d43611532565b6040518060400160405280600781526020017f47454e4553495300000000000000000000000000000000000000000000000000815250816000018190525060038190806001815401808255809150506001900390600052602060002090600202016000909190919091506000820151816000019081610dc29190612075565b506020820151816001015550507f0a97a4ee45751e2abf3e4fc8946939630b11b371ea8ae39ccdc3056e98f5cc3f60006001604051610e0292919061220d565b60405180910390a150565b610e156113e8565b60016005811115610e2957610e286116ec565b5b600260009054906101000a900460ff166005811115610e4b57610e4a6116ec565b5b14610e8b576040517f08c379a0000000000000000000000000000000000000000000000000000000008152600401610e829061233a565b60405180910390fd5b60028060006101000a81548160ff02191690836005811115610eb057610eaf6116ec565b5b02179055507f0a97a4ee45751e2abf3e4fc8946939630b11b371ea8ae39ccdc3056e98f5cc3f60016002604051610ee892919061220d565b60405180910390a1565b610efa61154c565b600460003373ffffffffffffffffffffffffffffffffffffffff1673ffffffffffffffffffffffffffffffffffffffff16815260200190815260200160002060000160009054906101000a900460ff16610f89576040517f08c379a0000000000000000000000000000000000000000000000000000000008152600401610f8090611a3d565b60405180910390fd5b600460008373ffffffffffffffffffffffffffffffffffffffff1673ffffffffffffffffffffffffffffffffffffffff1681526020019081526020016000206040518060600160405290816000820160009054906101000a900460ff161515151581526020016000820160019054906101000a900460ff161515151581526020016001820154815250509050919050565b6110226113e8565b60026005811115611036576110356116ec565b5b600260009054906101000a900460ff166005811115611058576110576116ec565b5b14611098576040517f08c379a000000000000000000000000000000000000000000000000000000000815260040161108f906123cc565b60405180910390fd5b6003600260006101000a81548160ff021916908360058111156110be576110bd6116ec565b5b02179055507f0a97a4ee45751e2abf3e4fc8946939630b11b371ea8ae39ccdc3056e98f5cc3f600260036040516110f692919061220d565b60405180910390a1565b6111086113e8565b600073ffffffffffffffffffffffffffffffffffffffff168173ffffffffffffffffffffffffffffffffffffffff1603611177576040517f08c379a000000000000000000000000000000000000000000000000000000000815260040161116e9061245e565b60405180910390fd5b61118081611466565b50565b61118b6113e8565b6000600581111561119f5761119e6116ec565b5b600260009054906101000a900460ff1660058111156111c1576111c06116ec565b5b14611201576040517f08c379a00000000000000000000000000000000000000000000000000000000081526004016111f8906124f0565b60405180910390fd5b60011515600460008373ffffffffffffffffffffffffffffffffffffffff1673ffffffffffffffffffffffffffffffffffffffff16815260200190815260200160002060000160009054906101000a900460ff16151503611297576040517f08c379a000000000000000000000000000000000000000000000000000000000815260040161128e9061255c565b60405180910390fd5b6001600460008373ffffffffffffffffffffffffffffffffffffffff1673ffffffffffffffffffffffffffffffffffffffff16815260200190815260200160002060000160006101000a81548160ff0219169083151502179055507fb6be2187d059cc2a55fe29e0e503b566e1e0f8c8780096e185429350acffd3dd8160405161132191906116d1565b60405180910390a150565b6003818154811061133c57600080fd5b906000526020600020906002020160009150905080600001805461135f90611e98565b80601f016020809104026020016040519081016040528092919081815260200182805461138b90611e98565b80156113d85780601f106113ad576101008083540402835291602001916113d8565b820191906000526020600020905b8154815290600101906020018083116113bb57829003601f168201915b5050505050908060010154905082565b6113f061152a565b73ffffffffffffffffffffffffffffffffffffffff1661140e610a03565b73ffffffffffffffffffffffffffffffffffffffff1614611464576040517f08c379a000000000000000000000000000000000000000000000000000000000815260040161145b906125c8565b60405180910390fd5b565b60008060009054906101000a900473ffffffffffffffffffffffffffffffffffffffff169050816000806101000a81548173ffffffffffffffffffffffffffffffffffffffff021916908373ffffffffffffffffffffffffffffffffffffffff1602179055508173ffffffffffffffffffffffffffffffffffffffff168173ffffffffffffffffffffffffffffffffffffffff167f8be0079c531659141344cd1fd0a4f28419497f9722a3daafe3b4186f6b6457e060405160405180910390a35050565b600033905090565b604051806040016040528060608152602001600081525090565b6040518060600160405280600015158152602001600015158152602001600081525090565b600080fd5b600080fd5b6000819050919050565b61158e8161157b565b811461159957600080fd5b50565b6000813590506115ab81611585565b92915050565b6000602082840312156115c7576115c6611571565b5b60006115d58482850161159c565b91505092915050565b600080fd5b600080fd5b600080fd5b60008083601f840112611603576116026115de565b5b8235905067ffffffffffffffff8111156116205761161f6115e3565b5b60208301915083600182028301111561163c5761163b6115e8565b5b9250929050565b6000806020838503121561165a57611659611571565b5b600083013567ffffffffffffffff81111561167857611677611576565b5b611684858286016115ed565b92509250509250929050565b600073ffffffffffffffffffffffffffffffffffffffff82169050919050565b60006116bb82611690565b9050919050565b6116cb816116b0565b82525050565b60006020820190506116e660008301846116c2565b92915050565b7f4e487b7100000000000000000000000000000000000000000000000000000000600052602160045260246000fd5b6006811061172c5761172b6116ec565b5b50565b600081905061173d8261171b565b919050565b600061174d8261172f565b9050919050565b61175d81611742565b82525050565b60006020820190506117786000830184611754565b92915050565b600081519050919050565b600082825260208201905092915050565b60005b838110156117b857808201518184015260208101905061179d565b60008484015250505050565b6000601f19601f8301169050919050565b60006117e08261177e565b6117ea8185611789565b93506117fa81856020860161179a565b611803816117c4565b840191505092915050565b6118178161157b565b82525050565b6000604083016000830151848203600086015261183a82826117d5565b915050602083015161184f602086018261180e565b508091505092915050565b60006020820190508181036000830152611874818461181d565b905092915050565b6118858161157b565b82525050565b60006020820190506118a0600083018461187c565b92915050565b6118af816116b0565b81146118ba57600080fd5b50565b6000813590506118cc816118a6565b92915050565b6000602082840312156118e8576118e7611571565b5b60006118f6848285016118bd565b91505092915050565b60008115159050919050565b611914816118ff565b82525050565b606082016000820151611930600085018261190b565b506020820151611943602085018261190b565b506040820151611956604085018261180e565b50505050565b6000606082019050611971600083018461191a565b92915050565b600082825260208201905092915050565b60006119938261177e565b61199d8185611977565b93506119ad81856020860161179a565b6119b6816117c4565b840191505092915050565b600060408201905081810360008301526119db8185611988565b90506119ea602083018461187c565b9392505050565b7f596f75277265206e6f74206120766f7465720000000000000000000000000000600082015250565b6000611a27601283611977565b9150611a32826119f1565b602082019050919050565b60006020820190508181036000830152611a5681611a1a565b9050919050565b7f566f74696e672073657373696f6e20686176656e74207374617274656420796560008201527f7400000000000000000000000000000000000000000000000000000000000000602082015250565b6000611ab9602183611977565b9150611ac482611a5d565b604082019050919050565b60006020820190508181036000830152611ae881611aac565b9050919050565b7f596f75206861766520616c726561647920766f74656400000000000000000000600082015250565b6000611b25601683611977565b9150611b3082611aef565b602082019050919050565b60006020820190508181036000830152611b5481611b18565b9050919050565b7f50726f706f73616c206e6f7420666f756e640000000000000000000000000000600082015250565b6000611b91601283611977565b9150611b9c82611b5b565b602082019050919050565b60006020820190508181036000830152611bc081611b84565b9050919050565b7f4e487b7100000000000000000000000000000000000000000000000000000000600052603260045260246000fd5b7f4e487b7100000000000000000000000000000000000000000000000000000000600052601160045260246000fd5b6000611c308261157b565b91507fffffffffffffffffffffffffffffffffffffffffffffffffffffffffffffffff8203611c6257611c61611bf6565b5b600182019050919050565b6000604082019050611c8260008301856116c2565b611c8f602083018461187c565b9392505050565b7f50726f706f73616c7320617265206e6f7420616c6c6f77656420796574000000600082015250565b6000611ccc601d83611977565b9150611cd782611c96565b602082019050919050565b60006020820190508181036000830152611cfb81611cbf565b9050919050565b50565b6000611d12600083611977565b9150611d1d82611d02565b600082019050919050565b60006020820190508181036000830152611d4181611d05565b9050919050565b82818337600083830152505050565b6000611d638385611977565b9350611d70838584611d48565b611d79836117c4565b840190509392505050565b60006020820190508181036000830152611d9f818486611d57565b90509392505050565b7f566f7573206e6520706f7576657a20706173206e65207269656e2070726f706f60008201527f7365720000000000000000000000000000000000000000000000000000000000602082015250565b6000611e04602383611977565b9150611e0f82611da8565b604082019050919050565b60006020820190508181036000830152611e3381611df7565b9050919050565b7f4e487b7100000000000000000000000000000000000000000000000000000000600052604160045260246000fd5b7f4e487b7100000000000000000000000000000000000000000000000000000000600052602260045260246000fd5b60006002820490506001821680611eb057607f821691505b602082108103611ec357611ec2611e69565b5b50919050565b60008190508160005260206000209050919050565b60006020601f8301049050919050565b600082821b905092915050565b600060088302611f2b7fffffffffffffffffffffffffffffffffffffffffffffffffffffffffffffffff82611eee565b611f358683611eee565b95508019841693508086168417925050509392505050565b6000819050919050565b6000611f72611f6d611f688461157b565b611f4d565b61157b565b9050919050565b6000819050919050565b611f8c83611f57565b611fa0611f9882611f79565b848454611efb565b825550505050565b600090565b611fb5611fa8565b611fc0818484611f83565b505050565b5b81811015611fe457611fd9600082611fad565b600181019050611fc6565b5050565b601f82111561202957611ffa81611ec9565b61200384611ede565b81016020851015612012578190505b61202661201e85611ede565b830182611fc5565b50505b505050565b600082821c905092915050565b600061204c6000198460080261202e565b1980831691505092915050565b6000612065838361203b565b9150826002028217905092915050565b61207e8261177e565b67ffffffffffffffff81111561209757612096611e3a565b5b6120a18254611e98565b6120ac828285611fe8565b600060209050601f8311600181146120df57600084156120cd578287015190505b6120d78582612059565b86555061213f565b601f1984166120ed86611ec9565b60005b82811015612115578489015182556001820191506020850194506020810190506120f0565b86831015612132578489015161212e601f89168261203b565b8355505b6001600288020188555050505b505050505050565b60006121528261157b565b915061215d8361157b565b925082820390508181111561217557612174611bf6565b5b92915050565b7f43757272656e7420737461747573206973206e6f7420766f74696e672073657360008201527f73696f6e20656e64656400000000000000000000000000000000000000000000602082015250565b60006121d7602a83611977565b91506121e28261217b565b604082019050919050565b60006020820190508181036000830152612206816121ca565b9050919050565b60006040820190506122226000830185611754565b61222f6020830184611754565b9392505050565b7f5265676973746572696e672070726f706f73616c732063616e7420626520737460008201527f6172746564206e6f770000000000000000000000000000000000000000000000602082015250565b6000612292602983611977565b915061229d82612236565b604082019050919050565b600060208201905081810360008301526122c181612285565b9050919050565b7f5265676973746572696e672070726f706f73616c7320686176656e742073746160008201527f7274656420796574000000000000000000000000000000000000000000000000602082015250565b6000612324602883611977565b915061232f826122c8565b604082019050919050565b6000602082019050818103600083015261235381612317565b9050919050565b7f5265676973746572696e672070726f706f73616c73207068617365206973206e60008201527f6f742066696e6973686564000000000000000000000000000000000000000000602082015250565b60006123b6602b83611977565b91506123c18261235a565b604082019050919050565b600060208201905081810360008301526123e5816123a9565b9050919050565b7f4f776e61626c653a206e6577206f776e657220697320746865207a65726f206160008201527f6464726573730000000000000000000000000000000000000000000000000000602082015250565b6000612448602683611977565b9150612453826123ec565b604082019050919050565b600060208201905081810360008301526124778161243b565b9050919050565b7f566f7465727320726567697374726174696f6e206973206e6f74206f70656e2060008201527f7965740000000000000000000000000000000000000000000000000000000000602082015250565b60006124da602383611977565b91506124e58261247e565b604082019050919050565b60006020820190508181036000830152612509816124cd565b9050919050565b7f416c726561647920726567697374657265640000000000000000000000000000600082015250565b6000612546601283611977565b915061255182612510565b602082019050919050565b6000602082019050818103600083015261257581612539565b9050919050565b7f4f776e61626c653a2063616c6c6572206973206e6f7420746865206f776e6572600082015250565b60006125b2602083611977565b91506125bd8261257c565b602082019050919050565b600060208201905081810360008301526125e1816125a5565b905091905056fea2646970667358221220444066da5d2546e340ac613c707924d50b0b9a33c558203f644a4bda4393e76064736f6c63430008120033",
  "immutableReferences": {},
  "source": "// SPDX-License-Identifier: MIT\n\npragma solidity 0.8.18;\nimport \"@openzeppelin/contracts/access/Ownable.sol\";\n\n/**\n* @title Voting\n* @dev Contrat pour la ralisation d'un vote\n */\ncontract Voting is Ownable {\n\n    uint public winningProposalID;\n    \n    struct Voter {\n        bool isRegistered;\n        bool hasVoted;\n        uint votedProposalId;\n    }\n\n    struct Proposal {            \n        string description;\n        uint voteCount;\n    }\n\n    enum  WorkflowStatus {\n        RegisteringVoters,\n        ProposalsRegistrationStarted,\n        ProposalsRegistrationEnded,\n        VotingSessionStarted,\n        VotingSessionEnded,\n        VotesTallied\n    }\n\n    WorkflowStatus public workflowStatus;\n    Proposal[] public proposalsArray;\n    mapping (address => Voter) voters;\n\n\n    event VoterRegistered(address voterAddress); \n    event WorkflowStatusChange(WorkflowStatus previousStatus, WorkflowStatus newStatus);\n    event ProposalRegistered(uint proposalId);\n    event Voted (address voter, uint proposalId);\n    \n    modifier onlyVoters() {\n        require(voters[msg.sender].isRegistered, \"You're not a voter\");\n        _;\n    }\n    // ::::::::::::: GETTERS ::::::::::::: //\n\n    /**\n    * @dev Renvoie les informations de l'lecteur pour l'adresse donne.\n    * @param _addr Adresse de l'lecteur\n    * @return Voter les informations de l'lecteur\n     */\n    function getVoter(address _addr) external onlyVoters view returns (Voter memory) {\n        return voters[_addr];\n    }\n    \n    /**\n     * @dev Renvoie le nombre de propositions enregistres.\n     * @param _id L'ID de la proposition.\n     * @return Proposal Les informations de la proposition.\n     */\n    function getOneProposal(uint _id) external onlyVoters view returns (Proposal memory) {\n        return proposalsArray[_id];\n    }\n\n \n    // ::::::::::::: REGISTRATION ::::::::::::: // \n\n    /**\n     * @dev Ajoute un lecteur  la liste d'enregistrement.\n     * @param _addr L'adresse de l'lecteur  ajouter.\n     */\n    function addVoter(address _addr) external onlyOwner {\n        require(workflowStatus == WorkflowStatus.RegisteringVoters, 'Voters registration is not open yet');\n        require(voters[_addr].isRegistered != true, 'Already registered');\n    \n        voters[_addr].isRegistered = true;\n        emit VoterRegistered(_addr);\n    }\n \n\n    // ::::::::::::: PROPOSAL ::::::::::::: // \n\n    /**\n     * @dev Ajoute une nouvelle proposition  la liste des propositions.\n     * @param _desc La description de la proposition.\n     */\n    function addProposal(string calldata _desc) external onlyVoters {\n        require(workflowStatus == WorkflowStatus.ProposalsRegistrationStarted, 'Proposals are not allowed yet');\n        require(keccak256(abi.encode(_desc)) != keccak256(abi.encode(\"\")), 'Vous ne pouvez pas ne rien proposer'); // facultatif\n        // voir que desc est different des autres\n\n        Proposal memory proposal;\n        proposal.description = _desc;\n        proposalsArray.push(proposal);\n        emit ProposalRegistered(proposalsArray.length-1);\n    }\n\n   // ::::::::::::: VOTE ::::::::::::: //\n\n/* function setVote( uint _id) external onlyVoters {\n        require(workflowStatus == WorkflowStatus.VotingSessionStarted, 'Voting session havent started yet');\n        require(voters[msg.sender].hasVoted != true, 'You have already voted');\n        require(_id < proposalsArray.length, 'Proposal not found'); // pas oblig, et pas besoin du >0 car uint\n\n        voters[msg.sender].votedProposalId = _id;\n        voters[msg.sender].hasVoted = true;\n        proposalsArray[_id].voteCount++;\n\n        emit Voted(msg.sender, _id);\n    }*/\n    /**\n    * @dev Enregistre le vote de l'lecteur pour la proposition donne.\n    * @param _id L'ID de la proposition.\n     */\n    function setVote(uint _id) external onlyVoters {\n        require(workflowStatus == WorkflowStatus.VotingSessionStarted, 'Voting session havent started yet');\n        require(voters[msg.sender].hasVoted != true, 'You have already voted');\n        require(_id < proposalsArray.length, 'Proposal not found');\n\n        uint previousWinnerID = winningProposalID;\n        uint previousVoteCount = proposalsArray[previousWinnerID].voteCount;\n\n        voters[msg.sender].votedProposalId = _id;\n        voters[msg.sender].hasVoted = true;\n        proposalsArray[_id].voteCount++;\n\n        if (proposalsArray[_id].voteCount > previousVoteCount) {\n            winningProposalID = _id;\n            //proposalsArray[previousWinnerID].voteCount = previousVoteCount - 1;\n        }\n\n        emit Voted(msg.sender, _id);\n    }\n\n  // ::::::::::::: STATE ::::::::::::: //\n\n    /**\n    * @dev Dmarre la phase d'enregistrement des propositions.\n     */\n    function startProposalsRegistering() external onlyOwner {\n        require(workflowStatus == WorkflowStatus.RegisteringVoters, 'Registering proposals cant be started now');\n        workflowStatus = WorkflowStatus.ProposalsRegistrationStarted;\n        \n        Proposal memory proposal;\n        proposal.description = \"GENESIS\";\n        proposalsArray.push(proposal);\n        \n        emit WorkflowStatusChange(WorkflowStatus.RegisteringVoters, WorkflowStatus.ProposalsRegistrationStarted);\n    }\n\n    /**\n    * @dev Termine la phase d'enregistrement des propositions.\n     */\n    function endProposalsRegistering() external onlyOwner {\n        require(workflowStatus == WorkflowStatus.ProposalsRegistrationStarted, 'Registering proposals havent started yet');\n        workflowStatus = WorkflowStatus.ProposalsRegistrationEnded;\n        emit WorkflowStatusChange(WorkflowStatus.ProposalsRegistrationStarted, WorkflowStatus.ProposalsRegistrationEnded);\n    }\n\n    /**\n    * @dev Dmarre la session de vote.\n     */\n    function startVotingSession() external onlyOwner {\n        require(workflowStatus == WorkflowStatus.ProposalsRegistrationEnded, 'Registering proposals phase is not finished');\n        workflowStatus = WorkflowStatus.VotingSessionStarted;\n        emit WorkflowStatusChange(WorkflowStatus.ProposalsRegistrationEnded, WorkflowStatus.VotingSessionStarted);\n    }\n\n    /**\n    * @dev Termine la session de vote.\n    */\n    function endVotingSession() external onlyOwner {\n        require(workflowStatus == WorkflowStatus.VotingSessionStarted, 'Voting session havent started yet');\n        workflowStatus = WorkflowStatus.VotingSessionEnded;\n        emit WorkflowStatusChange(WorkflowStatus.VotingSessionStarted, WorkflowStatus.VotingSessionEnded);\n    }\n\n    /**\n    * @dev Compte les votes et dtermine la proposition gagnante.\n    */\n   function tallyVotes() external onlyOwner {\n       require(workflowStatus == WorkflowStatus.VotingSessionEnded, \"Current status is not voting session ended\");\n       uint _winningProposalId;\n      for (uint256 p = 0; p < proposalsArray.length; p++) {\n           if (proposalsArray[p].voteCount > proposalsArray[_winningProposalId].voteCount) {\n               _winningProposalId = p;\n          }\n       }\n       winningProposalID = _winningProposalId;\n       \n       workflowStatus = WorkflowStatus.VotesTallied;\n       emit WorkflowStatusChange(WorkflowStatus.VotingSessionEnded, WorkflowStatus.VotesTallied);\n    }\n}",
  "sourcePath": "/home/adm-linux/projet3/truffle/contracts/Voting.sol",
  "compiler": {
    "name": "solc",
    "version": "0.8.18+commit.87f61d96.Emscripten.clang"
  },
  "schemaVersion": "3.4.14",
  "updatedAt": "2023-07-02T15:02:02.130Z",
  "networkType": "ethereum",
  "devdoc": {
    "details": "Contrat pour la ralisation d'un vote",
    "kind": "dev",
    "methods": {
      "addProposal(string)": {
        "details": "Ajoute une nouvelle proposition  la liste des propositions.",
        "params": {
          "_desc": "La description de la proposition."
        }
      },
      "addVoter(address)": {
        "details": "Ajoute un lecteur  la liste d'enregistrement.",
        "params": {
          "_addr": "L'adresse de l'lecteur  ajouter."
        }
      },
      "endProposalsRegistering()": {
        "details": "Termine la phase d'enregistrement des propositions."
      },
      "endVotingSession()": {
        "details": "Termine la session de vote."
      },
      "getOneProposal(uint256)": {
        "details": "Renvoie le nombre de propositions enregistres.",
        "params": {
          "_id": "L'ID de la proposition."
        },
        "returns": {
          "_0": "Proposal Les informations de la proposition."
        }
      },
      "getVoter(address)": {
        "details": "Renvoie les informations de l'lecteur pour l'adresse donne.",
        "params": {
          "_addr": "Adresse de l'lecteur"
        },
        "returns": {
          "_0": "Voter les informations de l'lecteur"
        }
      },
      "owner()": {
        "details": "Returns the address of the current owner."
      },
      "renounceOwnership()": {
        "details": "Leaves the contract without owner. It will not be possible to call `onlyOwner` functions. Can only be called by the current owner. NOTE: Renouncing ownership will leave the contract without an owner, thereby disabling any functionality that is only available to the owner."
      },
      "setVote(uint256)": {
        "details": "Enregistre le vote de l'lecteur pour la proposition donne.",
        "params": {
          "_id": "L'ID de la proposition."
        }
      },
      "startProposalsRegistering()": {
        "details": "Dmarre la phase d'enregistrement des propositions."
      },
      "startVotingSession()": {
        "details": "Dmarre la session de vote."
      },
      "tallyVotes()": {
        "details": "Compte les votes et dtermine la proposition gagnante."
      },
      "transferOwnership(address)": {
        "details": "Transfers ownership of the contract to a new account (`newOwner`). Can only be called by the current owner."
      }
    },
    "title": "Voting",
    "version": 1
  },
  "userdoc": {
    "kind": "user",
    "methods": {},
    "version": 1
  }
}